{
  "transactions": [
    {
      "hash": "0xd6db44737b7c54c7a5e6505b2cf042e0c65b904dd0175ea6214ec5d84f60726c",
      "transactionType": "CREATE",
      "contractName": "MultiMinter",
      "contractAddress": "0xaa8413184dff2133c2f798742253f2fa69a0d8f9",
      "function": null,
      "arguments": [
        "0xCA1d113D48B29A5B41C33929089bA3687B9a803D",
        "0xc75515A5AFFDD444FdF38Ce5fdFBbfb965446E44",
        "0x86025D938FA517FFB809ECc2e200E7a2f02879bb"
      ],
      "transaction": {
        "from": "0x3df0d0a377aaab967a6bebb4642c5c8ec2349045",
        "gas": "0x157de2",
        "value": "0x0",
        "input": "0x60e060405234801561000f575f80fd5b506040516113b73803806113b783398101604081905261002e916100f9565b338061005357604051631e4fbdf760e01b81525f600482015260240160405180910390fd5b61005c8161007a565b506001600160a01b0392831660805290821660a0521660c052610143565b600180546001600160a01b031916905561009381610096565b50565b5f80546001600160a01b038381166001600160a01b0319831681178455604051919092169283917f8be0079c531659141344cd1fd0a4f28419497f9722a3daafe3b4186f6b6457e09190a35050565b6001600160a01b0381168114610093575f80fd5b5f805f6060848603121561010b575f80fd5b8351610116816100e5565b6020850151909350610127816100e5565b6040850151909250610138816100e5565b809150509250925092565b60805160a05160c05161122e6101895f395f81816103cf015281816108f601528181610a450152610af501525f81816109ac0152610c6301525f610867015261122e5ff3fe6080604052600436106100c3575f3560e01c80638da5cb5b11610071578063e30c39781161004c578063e30c3978146101fc578063f2fde38b14610226578063f92883a214610245575f80fd5b80638da5cb5b1461016d5780639d62d722146101bc578063a647e8ec146101dd575f80fd5b806379ba5097116100a157806379ba50971461011b578063853f6ddc1461012f578063887ccb8a1461014e575f80fd5b806301681a62146100c757806330ecb66e146100e8578063715018a614610107575b5f80fd5b3480156100d2575f80fd5b506100e66100e1366004610ea1565b610258565b005b3480156100f3575f80fd5b506100e6610102366004610ec1565b61032f565b348015610112575f80fd5b506100e661043e565b348015610126575f80fd5b506100e6610451565b34801561013a575f80fd5b506100e6610149366004610ed8565b6104c8565b348015610159575f80fd5b506100e6610168366004610ea1565b610550565b348015610178575f80fd5b505f5473ffffffffffffffffffffffffffffffffffffffff165b60405173ffffffffffffffffffffffffffffffffffffffff90911681526020015b60405180910390f35b6101cf6101ca366004610f09565b61059d565b6040516101b3929190610f7a565b3480156101e8575f80fd5b506100e66101f7366004611041565b610743565b348015610207575f80fd5b5060015473ffffffffffffffffffffffffffffffffffffffff16610192565b348015610231575f80fd5b506100e6610240366004610ea1565b61075e565b6100e6610253366004611077565b61080d565b610260610d87565b5f8173ffffffffffffffffffffffffffffffffffffffff16476040515f6040518083038185875af1925050503d805f81146102b6576040519150601f19603f3d011682016040523d82523d5f602084013e6102bb565b606091505b505090508061032b576040517f08c379a000000000000000000000000000000000000000000000000000000000815260206004820152601960248201527f4572726f72207768696c652073656e64696e672045746865720000000000000060448201526064015b60405180910390fd5b5050565b610337610d87565b5f81116103a0576040517f08c379a000000000000000000000000000000000000000000000000000000000815260206004820152600b60248201527f43616e6e6f7420626520300000000000000000000000000000000000000000006044820152606401610322565b6040517fb423a761000000000000000000000000000000000000000000000000000000008152600481018290527f000000000000000000000000000000000000000000000000000000000000000073ffffffffffffffffffffffffffffffffffffffff169063b423a761906024015f604051808303815f87803b158015610425575f80fd5b505af1158015610437573d5f803e3d5ffd5b5050505050565b610446610d87565b61044f5f610dd9565b565b600154339073ffffffffffffffffffffffffffffffffffffffff1681146104bc576040517f118cdaa700000000000000000000000000000000000000000000000000000000815273ffffffffffffffffffffffffffffffffffffffff82166004820152602401610322565b6104c581610dd9565b50565b6104d0610d87565b6040517ff2fde38b00000000000000000000000000000000000000000000000000000000815273ffffffffffffffffffffffffffffffffffffffff828116600483015283169063f2fde38b906024015f604051808303815f87803b158015610536575f80fd5b505af1158015610548573d5f803e3d5ffd5b505050505050565b610558610d87565b8073ffffffffffffffffffffffffffffffffffffffff166379ba50976040518163ffffffff1660e01b81526004015f604051808303815f87803b158015610425575f80fd5b5f60606105a8610d87565b439150828067ffffffffffffffff8111156105c5576105c56110b5565b6040519080825280602002602001820160405280156105f857816020015b60608152602001906001900390816105e35790505b509150365f5b82811015610739575f878783818110610619576106196110e2565b905060200281019061062b919061110f565b925061063a6020840184610ea1565b73ffffffffffffffffffffffffffffffffffffffff1661065d602085018561114b565b60405161066b9291906111b3565b5f604051808303815f865af19150503d805f81146106a4576040519150601f19603f3d011682016040523d82523d5f602084013e6106a9565b606091505b508684815181106106bc576106bc6110e2565b6020908102919091010152905080610730576040517f08c379a000000000000000000000000000000000000000000000000000000000815260206004820152601760248201527f4d756c746963616c6c333a2063616c6c206661696c65640000000000000000006044820152606401610322565b506001016105fe565b5050509250929050565b61074b610d87565b610758848484845f61080d565b50505050565b610766610d87565b6001805473ffffffffffffffffffffffffffffffffffffffff83167fffffffffffffffffffffffff000000000000000000000000000000000000000090911681179091556107c85f5473ffffffffffffffffffffffffffffffffffffffff1690565b73ffffffffffffffffffffffffffffffffffffffff167f38d16b8cac22d99fc7c124b9cd0de2d3fa1faef420bfe791d8c362d765e2270060405160405180910390a350565b610815610d87565b83156108bf576040517f40c10f1900000000000000000000000000000000000000000000000000000000815273ffffffffffffffffffffffffffffffffffffffff8681166004830152602482018690527f000000000000000000000000000000000000000000000000000000000000000016906340c10f19906044015f604051808303815f87803b1580156108a8575f80fd5b505af11580156108ba573d5f803e3d5ffd5b505050505b8215610c11576040517fbb2952fc000000000000000000000000000000000000000000000000000000008152600481018490525f907f000000000000000000000000000000000000000000000000000000000000000073ffffffffffffffffffffffffffffffffffffffff169063bb2952fc90602401602060405180830381865afa158015610950573d5f803e3d5ffd5b505050506040513d601f19601f8201168201806040525081019061097491906111c2565b6040517f40c10f19000000000000000000000000000000000000000000000000000000008152306004820152602481018290529091507f000000000000000000000000000000000000000000000000000000000000000073ffffffffffffffffffffffffffffffffffffffff16906340c10f19906044015f604051808303815f87803b158015610a02575f80fd5b505af1158015610a14573d5f803e3d5ffd5b50506040517fea598cb0000000000000000000000000000000000000000000000000000000008152600481018490527f000000000000000000000000000000000000000000000000000000000000000073ffffffffffffffffffffffffffffffffffffffff16925063ea598cb091506024016020604051808303815f875af1158015610aa2573d5f803e3d5ffd5b505050506040513d601f19601f82011682018060405250810190610ac691906111c2565b506040517f70a082310000000000000000000000000000000000000000000000000000000081523060048201527f000000000000000000000000000000000000000000000000000000000000000073ffffffffffffffffffffffffffffffffffffffff169063a9059cbb90889083906370a0823190602401602060405180830381865afa158015610b59573d5f803e3d5ffd5b505050506040513d601f19601f82011682018060405250810190610b7d91906111c2565b6040517fffffffff0000000000000000000000000000000000000000000000000000000060e085901b16815273ffffffffffffffffffffffffffffffffffffffff909216600483015260248201526044016020604051808303815f875af1158015610bea573d5f803e3d5ffd5b505050506040513d601f19601f82011682018060405250810190610c0e91906111d9565b50505b8115610cbb576040517f40c10f1900000000000000000000000000000000000000000000000000000000815273ffffffffffffffffffffffffffffffffffffffff8681166004830152602482018490527f000000000000000000000000000000000000000000000000000000000000000016906340c10f19906044015f604051808303815f87803b158015610ca4575f80fd5b505af1158015610cb6573d5f803e3d5ffd5b505050505b8015610437575f8573ffffffffffffffffffffffffffffffffffffffff16826040515f6040518083038185875af1925050503d805f8114610d17576040519150601f19603f3d011682016040523d82523d5f602084013e610d1c565b606091505b5050905080610548576040517f08c379a000000000000000000000000000000000000000000000000000000000815260206004820152601960248201527f4572726f72207768696c652073656e64696e67204574686572000000000000006044820152606401610322565b5f5473ffffffffffffffffffffffffffffffffffffffff16331461044f576040517f118cdaa7000000000000000000000000000000000000000000000000000000008152336004820152602401610322565b600180547fffffffffffffffffffffffff00000000000000000000000000000000000000001690556104c5815f805473ffffffffffffffffffffffffffffffffffffffff8381167fffffffffffffffffffffffff0000000000000000000000000000000000000000831681178455604051919092169283917f8be0079c531659141344cd1fd0a4f28419497f9722a3daafe3b4186f6b6457e09190a35050565b803573ffffffffffffffffffffffffffffffffffffffff81168114610e9c575f80fd5b919050565b5f60208284031215610eb1575f80fd5b610eba82610e79565b9392505050565b5f60208284031215610ed1575f80fd5b5035919050565b5f8060408385031215610ee9575f80fd5b610ef283610e79565b9150610f0060208401610e79565b90509250929050565b5f8060208385031215610f1a575f80fd5b823567ffffffffffffffff811115610f30575f80fd5b8301601f81018513610f40575f80fd5b803567ffffffffffffffff811115610f56575f80fd5b8560208260051b8401011115610f6a575f80fd5b6020919091019590945092505050565b5f604082018483526040602084015280845180835260608501915060608160051b8601019250602086015f5b82811015611034577fffffffffffffffffffffffffffffffffffffffffffffffffffffffffffffffa0878603018452815180518087528060208301602089015e5f6020828901015260207fffffffffffffffffffffffffffffffffffffffffffffffffffffffffffffffe0601f83011688010196505050602082019150602084019350600181019050610fa6565b5092979650505050505050565b5f805f8060808587031215611054575f80fd5b61105d85610e79565b966020860135965060408601359560600135945092505050565b5f805f805f60a0868803121561108b575f80fd5b61109486610e79565b97602087013597506040870135966060810135965060800135945092505050565b7f4e487b71000000000000000000000000000000000000000000000000000000005f52604160045260245ffd5b7f4e487b71000000000000000000000000000000000000000000000000000000005f52603260045260245ffd5b5f82357fffffffffffffffffffffffffffffffffffffffffffffffffffffffffffffffc1833603018112611141575f80fd5b9190910192915050565b5f8083357fffffffffffffffffffffffffffffffffffffffffffffffffffffffffffffffe184360301811261117e575f80fd5b83018035915067ffffffffffffffff821115611198575f80fd5b6020019150368190038213156111ac575f80fd5b9250929050565b818382375f9101908152919050565b5f602082840312156111d2575f80fd5b5051919050565b5f602082840312156111e9575f80fd5b81518015158114610eba575f80fdfea2646970667358221220bd24d31bdba994e835d4d48a0dcd54a271a476a9a87eab2782d794148ab8177f64736f6c634300081a0033000000000000000000000000ca1d113d48b29a5b41c33929089ba3687b9a803d000000000000000000000000c75515a5affdd444fdf38ce5fdfbbfb965446e4400000000000000000000000086025d938fa517ffb809ecc2e200e7a2f02879bb",
        "nonce": "0x83",
        "chainId": "0xaa36a7"
      },
      "additionalContracts": [],
      "isFixedGasLimit": false
    },
    {
      "hash": "0xeeecb455b4bc2f8756eb1adc792932ce761e28c0dcd0c4fd2f757b72da29056c",
      "transactionType": "CALL",
      "contractName": null,
      "contractAddress": "0xca1d113d48b29a5b41c33929089ba3687b9a803d",
      "function": "transferOwnership(address)",
      "arguments": [
        "0xAA8413184DFF2133C2f798742253F2fA69A0d8f9"
      ],
      "transaction": {
        "from": "0x3df0d0a377aaab967a6bebb4642c5c8ec2349045",
        "to": "0xca1d113d48b29a5b41c33929089ba3687b9a803d",
        "gas": "0x101ac",
        "value": "0x0",
        "input": "0xf2fde38b000000000000000000000000aa8413184dff2133c2f798742253f2fa69a0d8f9",
        "nonce": "0x84",
        "chainId": "0xaa36a7"
      },
      "additionalContracts": [],
      "isFixedGasLimit": false
    },
    {
      "hash": "0x8fdb466a722d30e99a57b2bf457a933bde2875727979368ad4a1e9ad9368a981",
      "transactionType": "CALL",
      "contractName": "MultiMinter",
      "contractAddress": "0xaa8413184dff2133c2f798742253f2fa69a0d8f9",
      "function": "acceptOwnershipOf(address)",
      "arguments": [
        "0xCA1d113D48B29A5B41C33929089bA3687B9a803D"
      ],
      "transaction": {
        "from": "0x3df0d0a377aaab967a6bebb4642c5c8ec2349045",
        "to": "0xaa8413184dff2133c2f798742253f2fa69a0d8f9",
        "gas": "0xb72d",
        "value": "0x0",
        "input": "0x887ccb8a000000000000000000000000ca1d113d48b29a5b41c33929089ba3687b9a803d",
        "nonce": "0x85",
        "chainId": "0xaa36a7"
      },
      "additionalContracts": [],
      "isFixedGasLimit": false
    },
    {
      "hash": "0x5c0507abc61b5379111edcccc86dde6e8b1e58bce38da82c77a2ac9937aaf52c",
      "transactionType": "CALL",
      "contractName": null,
      "contractAddress": "0xc75515a5affdd444fdf38ce5fdfbbfb965446e44",
      "function": "transferOwnership(address)",
      "arguments": [
        "0xAA8413184DFF2133C2f798742253F2fA69A0d8f9"
      ],
      "transaction": {
        "from": "0x3df0d0a377aaab967a6bebb4642c5c8ec2349045",
        "to": "0xc75515a5affdd444fdf38ce5fdfbbfb965446e44",
        "gas": "0x101a4",
        "value": "0x0",
        "input": "0xf2fde38b000000000000000000000000aa8413184dff2133c2f798742253f2fa69a0d8f9",
        "nonce": "0x86",
        "chainId": "0xaa36a7"
      },
      "additionalContracts": [],
      "isFixedGasLimit": false
    },
    {
      "hash": "0x1e6d69cec5de4456de15f2741b016af830cad16b29e614462b7a29e2cdece8f4",
      "transactionType": "CALL",
      "contractName": "MultiMinter",
      "contractAddress": "0xaa8413184dff2133c2f798742253f2fa69a0d8f9",
      "function": "acceptOwnershipOf(address)",
      "arguments": [
        "0xc75515A5AFFDD444FdF38Ce5fdFBbfb965446E44"
      ],
      "transaction": {
        "from": "0x3df0d0a377aaab967a6bebb4642c5c8ec2349045",
        "to": "0xaa8413184dff2133c2f798742253f2fa69a0d8f9",
        "gas": "0xb72d",
        "value": "0x0",
        "input": "0x887ccb8a000000000000000000000000c75515a5affdd444fdf38ce5fdfbbfb965446e44",
        "nonce": "0x87",
        "chainId": "0xaa36a7"
      },
      "additionalContracts": [],
      "isFixedGasLimit": false
    },
    {
      "hash": "0x77bf6784c02aa152ba5ca7275a5c1b3f523062d10e1f046d639e3d0dedc29424",
      "transactionType": "CALL",
      "contractName": null,
      "contractAddress": "0x86025d938fa517ffb809ecc2e200e7a2f02879bb",
      "function": "transferOwnership(address)",
      "arguments": [
        "0xAA8413184DFF2133C2f798742253F2fA69A0d8f9"
      ],
      "transaction": {
        "from": "0x3df0d0a377aaab967a6bebb4642c5c8ec2349045",
        "to": "0x86025d938fa517ffb809ecc2e200e7a2f02879bb",
        "gas": "0x101cb",
        "value": "0x0",
        "input": "0xf2fde38b000000000000000000000000aa8413184dff2133c2f798742253f2fa69a0d8f9",
        "nonce": "0x88",
        "chainId": "0xaa36a7"
      },
      "additionalContracts": [],
      "isFixedGasLimit": false
    },
    {
      "hash": "0x3e80394d3380e6d7da2a4caae415737e12e202559b079a8b01d1bfc777b2ee10",
      "transactionType": "CALL",
      "contractName": "MultiMinter",
      "contractAddress": "0xaa8413184dff2133c2f798742253f2fa69a0d8f9",
      "function": "acceptOwnershipOf(address)",
      "arguments": [
        "0x86025D938FA517FFB809ECc2e200E7a2f02879bb"
      ],
      "transaction": {
        "from": "0x3df0d0a377aaab967a6bebb4642c5c8ec2349045",
        "to": "0xaa8413184dff2133c2f798742253f2fa69a0d8f9",
        "gas": "0xb758",
        "value": "0x0",
        "input": "0x887ccb8a00000000000000000000000086025d938fa517ffb809ecc2e200e7a2f02879bb",
        "nonce": "0x89",
        "chainId": "0xaa36a7"
      },
      "additionalContracts": [],
      "isFixedGasLimit": false
    }
  ],
  "receipts": [
    {
      "status": "0x1",
      "cumulativeGasUsed": "0xd094ba",
      "logs": [
        {
          "address": "0xaa8413184dff2133c2f798742253f2fa69a0d8f9",
          "topics": [
            "0x8be0079c531659141344cd1fd0a4f28419497f9722a3daafe3b4186f6b6457e0",
            "0x0000000000000000000000000000000000000000000000000000000000000000",
            "0x0000000000000000000000003df0d0a377aaab967a6bebb4642c5c8ec2349045"
          ],
          "data": "0x",
          "blockHash": "0xb926fc47ac87f77265c2fc78a1bfe53081038e31073006bfcf106b5fd02b5ce9",
          "blockNumber": "0x69d7b0",
          "transactionHash": "0xd6db44737b7c54c7a5e6505b2cf042e0c65b904dd0175ea6214ec5d84f60726c",
          "transactionIndex": "0x81",
          "logIndex": "0xc5",
          "removed": false
        }
      ],
      "logsBloom": "0x00000000000020000000000000000000000000000000000000800000000000000000000000000000000000000000000000200000000000000000000000000000000000000000000010000000000000000001000000000000000000000000000000000000020000000000000000000800000000000000000000000000000000400000000000000000000000000000000000000000000000000000000000010000000000000000000000000000000000000000000000000000000000000000000000000000000000000000000000000000000000000000000000000000800020000000000000000000000000000000000000000800000000000000000000000000",
      "type": "0x2",
      "transactionHash": "0xd6db44737b7c54c7a5e6505b2cf042e0c65b904dd0175ea6214ec5d84f60726c",
      "transactionIndex": "0x81",
      "blockHash": "0xb926fc47ac87f77265c2fc78a1bfe53081038e31073006bfcf106b5fd02b5ce9",
      "blockNumber": "0x69d7b0",
      "gasUsed": "0x108838",
      "effectiveGasPrice": "0x1029f7315",
      "from": "0x3df0d0a377aaab967a6bebb4642c5c8ec2349045",
      "to": null,
      "contractAddress": "0xaa8413184dff2133c2f798742253f2fa69a0d8f9"
    },
    {
      "status": "0x1",
      "cumulativeGasUsed": "0xd14f48",
      "logs": [
        {
          "address": "0xca1d113d48b29a5b41c33929089ba3687b9a803d",
          "topics": [
            "0x38d16b8cac22d99fc7c124b9cd0de2d3fa1faef420bfe791d8c362d765e22700",
            "0x0000000000000000000000003df0d0a377aaab967a6bebb4642c5c8ec2349045",
            "0x000000000000000000000000aa8413184dff2133c2f798742253f2fa69a0d8f9"
          ],
          "data": "0x",
          "blockHash": "0xb926fc47ac87f77265c2fc78a1bfe53081038e31073006bfcf106b5fd02b5ce9",
          "blockNumber": "0x69d7b0",
          "transactionHash": "0xeeecb455b4bc2f8756eb1adc792932ce761e28c0dcd0c4fd2f757b72da29056c",
          "transactionIndex": "0x82",
          "logIndex": "0xc6",
          "removed": false
        }
      ],
      "logsBloom": "0x00000000000020000000000000000000000000000000000000000000000000000000000000000000000000000000000200000000000000000000000000000000000000000000000000000000000000000000000000000000000000000000000000000000000000000000010000000000000800000000000000000000000000000000000000000000000000000000000000000000000000000000000000010000000000000000020000000000020000000000000000000000000000000000000000002000000000000000000000000000010000000000000000000000800000000000000000000000000000000000000000008000000100000000000000000000",
      "type": "0x2",
      "transactionHash": "0xeeecb455b4bc2f8756eb1adc792932ce761e28c0dcd0c4fd2f757b72da29056c",
      "transactionIndex": "0x82",
      "blockHash": "0xb926fc47ac87f77265c2fc78a1bfe53081038e31073006bfcf106b5fd02b5ce9",
      "blockNumber": "0x69d7b0",
      "gasUsed": "0xba8e",
      "effectiveGasPrice": "0x1029f7315",
      "from": "0x3df0d0a377aaab967a6bebb4642c5c8ec2349045",
      "to": "0xca1d113d48b29a5b41c33929089ba3687b9a803d",
      "contractAddress": null
    },
    {
      "status": "0x1",
      "cumulativeGasUsed": "0xd1d3e7",
      "logs": [
        {
          "address": "0xca1d113d48b29a5b41c33929089ba3687b9a803d",
          "topics": [
            "0x8be0079c531659141344cd1fd0a4f28419497f9722a3daafe3b4186f6b6457e0",
            "0x0000000000000000000000003df0d0a377aaab967a6bebb4642c5c8ec2349045",
            "0x000000000000000000000000aa8413184dff2133c2f798742253f2fa69a0d8f9"
          ],
          "data": "0x",
          "blockHash": "0xb926fc47ac87f77265c2fc78a1bfe53081038e31073006bfcf106b5fd02b5ce9",
          "blockNumber": "0x69d7b0",
          "transactionHash": "0x8fdb466a722d30e99a57b2bf457a933bde2875727979368ad4a1e9ad9368a981",
          "transactionIndex": "0x83",
          "logIndex": "0xc7",
          "removed": false
        }
      ],
      "logsBloom": "0x00000000000020000000000000000000000000000000000000800000000000000000000000000000000000000000000200000000000000000000000000000000000000000000000000000000000000000001000000000000000000000000000000000000000000000000010000000000000000000000000000000000000000400000000000000000000000000000000000000000000000000000000000010000000000000000000000000000020000000000000000000000000000000000000000000000000000000000000000000000010000000000000000000000800000000000000000000000000000000000000000008000000100000000000000000000",
      "type": "0x2",
      "transactionHash": "0x8fdb466a722d30e99a57b2bf457a933bde2875727979368ad4a1e9ad9368a981",
      "transactionIndex": "0x83",
      "blockHash": "0xb926fc47ac87f77265c2fc78a1bfe53081038e31073006bfcf106b5fd02b5ce9",
      "blockNumber": "0x69d7b0",
      "gasUsed": "0x849f",
      "effectiveGasPrice": "0x1029f7315",
      "from": "0x3df0d0a377aaab967a6bebb4642c5c8ec2349045",
      "to": "0xaa8413184dff2133c2f798742253f2fa69a0d8f9",
      "contractAddress": null
    },
    {
      "status": "0x1",
      "cumulativeGasUsed": "0xd28e6f",
      "logs": [
        {
          "address": "0xc75515a5affdd444fdf38ce5fdfbbfb965446e44",
          "topics": [
            "0x38d16b8cac22d99fc7c124b9cd0de2d3fa1faef420bfe791d8c362d765e22700",
            "0x0000000000000000000000003df0d0a377aaab967a6bebb4642c5c8ec2349045",
            "0x000000000000000000000000aa8413184dff2133c2f798742253f2fa69a0d8f9"
          ],
          "data": "0x",
          "blockHash": "0xb926fc47ac87f77265c2fc78a1bfe53081038e31073006bfcf106b5fd02b5ce9",
          "blockNumber": "0x69d7b0",
          "transactionHash": "0x5c0507abc61b5379111edcccc86dde6e8b1e58bce38da82c77a2ac9937aaf52c",
          "transactionIndex": "0x84",
          "logIndex": "0xc8",
          "removed": false
        }
      ],
      "logsBloom": "0x00000000000020800000000000080000000000000000000000000000000000000000000000000000000000000000000200000000000000000000000000000000000000000000000000000000000000000000000000000000000000000000000000000000000000000000010000000000000800000000000000000000000000000000000000000000000000000000000000000000000000000000000000010000000000000000020000000000020000000000000000000000000000000000000000002000000000000000000000000000000000000000000000000000800000000000000000000000000000000000000000080000000000000000000000000000",
      "type": "0x2",
      "transactionHash": "0x5c0507abc61b5379111edcccc86dde6e8b1e58bce38da82c77a2ac9937aaf52c",
      "transactionIndex": "0x84",
      "blockHash": "0xb926fc47ac87f77265c2fc78a1bfe53081038e31073006bfcf106b5fd02b5ce9",
      "blockNumber": "0x69d7b0",
      "gasUsed": "0xba88",
      "effectiveGasPrice": "0x1029f7315",
      "from": "0x3df0d0a377aaab967a6bebb4642c5c8ec2349045",
      "to": "0xc75515a5affdd444fdf38ce5fdfbbfb965446e44",
      "contractAddress": null
    },
    {
      "status": "0x1",
      "cumulativeGasUsed": "0xd3130e",
      "logs": [
        {
          "address": "0xc75515a5affdd444fdf38ce5fdfbbfb965446e44",
          "topics": [
            "0x8be0079c531659141344cd1fd0a4f28419497f9722a3daafe3b4186f6b6457e0",
            "0x0000000000000000000000003df0d0a377aaab967a6bebb4642c5c8ec2349045",
            "0x000000000000000000000000aa8413184dff2133c2f798742253f2fa69a0d8f9"
          ],
          "data": "0x",
          "blockHash": "0xb926fc47ac87f77265c2fc78a1bfe53081038e31073006bfcf106b5fd02b5ce9",
          "blockNumber": "0x69d7b0",
          "transactionHash": "0x1e6d69cec5de4456de15f2741b016af830cad16b29e614462b7a29e2cdece8f4",
          "transactionIndex": "0x85",
          "logIndex": "0xc9",
          "removed": false
        }
      ],
      "logsBloom": "0x00000000000020800000000000080000000000000000000000800000000000000000000000000000000000000000000200000000000000000000000000000000000000000000000000000000000000000001000000000000000000000000000000000000000000000000010000000000000000000000000000000000000000400000000000000000000000000000000000000000000000000000000000010000000000000000000000000000020000000000000000000000000000000000000000000000000000000000000000000000000000000000000000000000800000000000000000000000000000000000000000080000000000000000000000000000",
      "type": "0x2",
      "transactionHash": "0x1e6d69cec5de4456de15f2741b016af830cad16b29e614462b7a29e2cdece8f4",
      "transactionIndex": "0x85",
      "blockHash": "0xb926fc47ac87f77265c2fc78a1bfe53081038e31073006bfcf106b5fd02b5ce9",
      "blockNumber": "0x69d7b0",
      "gasUsed": "0x849f",
      "effectiveGasPrice": "0x1029f7315",
      "from": "0x3df0d0a377aaab967a6bebb4642c5c8ec2349045",
      "to": "0xaa8413184dff2133c2f798742253f2fa69a0d8f9",
      "contractAddress": null
    },
    {
      "status": "0x1",
      "cumulativeGasUsed": "0xd3cdb2",
      "logs": [
        {
          "address": "0x86025d938fa517ffb809ecc2e200e7a2f02879bb",
          "topics": [
            "0x38d16b8cac22d99fc7c124b9cd0de2d3fa1faef420bfe791d8c362d765e22700",
            "0x0000000000000000000000003df0d0a377aaab967a6bebb4642c5c8ec2349045",
            "0x000000000000000000000000aa8413184dff2133c2f798742253f2fa69a0d8f9"
          ],
          "data": "0x",
          "blockHash": "0xb926fc47ac87f77265c2fc78a1bfe53081038e31073006bfcf106b5fd02b5ce9",
          "blockNumber": "0x69d7b0",
          "transactionHash": "0x77bf6784c02aa152ba5ca7275a5c1b3f523062d10e1f046d639e3d0dedc29424",
          "transactionIndex": "0x86",
          "logIndex": "0xca",
          "removed": false
        }
      ],
      "logsBloom": "0x00000000000020000000000000000000000000000000000000000000000000000000000000000000000000000000000200000000000000000000000001000000000000000000000000000000000000000000000000000000800000000000000000000000000000000000010000000000000800000000000000000000000000000000000000000000000000000000002000000000000000000000000000010000000000000000020000000000020000000000000000000000000000000000000000002000000000000000000000000000000000000000000000000000800000000000000000000000000000000000000000000000000000000000000000000000",
      "type": "0x2",
      "transactionHash": "0x77bf6784c02aa152ba5ca7275a5c1b3f523062d10e1f046d639e3d0dedc29424",
      "transactionIndex": "0x86",
      "blockHash": "0xb926fc47ac87f77265c2fc78a1bfe53081038e31073006bfcf106b5fd02b5ce9",
      "blockNumber": "0x69d7b0",
      "gasUsed": "0xbaa4",
      "effectiveGasPrice": "0x1029f7315",
      "from": "0x3df0d0a377aaab967a6bebb4642c5c8ec2349045",
      "to": "0x86025d938fa517ffb809ecc2e200e7a2f02879bb",
      "contractAddress": null
    },
    {
      "status": "0x1",
      "cumulativeGasUsed": "0xd45270",
      "logs": [
        {
          "address": "0x86025d938fa517ffb809ecc2e200e7a2f02879bb",
          "topics": [
            "0x8be0079c531659141344cd1fd0a4f28419497f9722a3daafe3b4186f6b6457e0",
            "0x0000000000000000000000003df0d0a377aaab967a6bebb4642c5c8ec2349045",
            "0x000000000000000000000000aa8413184dff2133c2f798742253f2fa69a0d8f9"
          ],
          "data": "0x",
          "blockHash": "0xb926fc47ac87f77265c2fc78a1bfe53081038e31073006bfcf106b5fd02b5ce9",
          "blockNumber": "0x69d7b0",
          "transactionHash": "0x3e80394d3380e6d7da2a4caae415737e12e202559b079a8b01d1bfc777b2ee10",
          "transactionIndex": "0x87",
          "logIndex": "0xcb",
          "removed": false
        }
      ],
      "logsBloom": "0x00000000000020000000000000000000000000000000000000800000000000000000000000000000000000000000000200000000000000000000000001000000000000000000000000000000000000000001000000000000800000000000000000000000000000000000010000000000000000000000000000000000000000400000000000000000000000000000002000000000000000000000000000010000000000000000000000000000020000000000000000000000000000000000000000000000000000000000000000000000000000000000000000000000800000000000000000000000000000000000000000000000000000000000000000000000",
      "type": "0x2",
      "transactionHash": "0x3e80394d3380e6d7da2a4caae415737e12e202559b079a8b01d1bfc777b2ee10",
      "transactionIndex": "0x87",
      "blockHash": "0xb926fc47ac87f77265c2fc78a1bfe53081038e31073006bfcf106b5fd02b5ce9",
      "blockNumber": "0x69d7b0",
      "gasUsed": "0x84be",
      "effectiveGasPrice": "0x1029f7315",
      "from": "0x3df0d0a377aaab967a6bebb4642c5c8ec2349045",
      "to": "0xaa8413184dff2133c2f798742253f2fa69a0d8f9",
      "contractAddress": null
    }
  ],
  "libraries": [],
  "pending": [],
  "returns": {
    "newMultiMint": {
      "internal_type": "contract MultiMinter",
      "value": "0xAA8413184DFF2133C2f798742253F2fA69A0d8f9"
    }
  },
  "timestamp": 1729781019,
  "chain": 11155111,
  "commit": "ff190a7"
}